:02000002D0002C
:1040000000400D00445A0D00000006000C000501A0
:084010000401BD0B00000000DB
:0440180000580D003F
:1040200009480A49884208B505D0094A824202D0A7
:10403000121A01F0A3FB0748074A0021121A01F0E7
:10404000ABFB014808BD00BFC8E50320B4590D0013
:1040500030E6032030E60320F0E7032070B5074E7A
:10406000074C00F00DFCA41BA4080025A54200D1BC
:1040700070BD56F8043B98470135F7E788590D00A5
:10408000AC590D0000F01CB808B500F047F8BDE8C9
:10409000084000F0B7BB00F053BA00F059BA0078FE
:1040A000B0FA80F04009704701230370704710B5E3
:1040B0000446006808B100F04BFA204610BD00002D
:1040C00007B50221062000F0EFFE012000F047FBBB
:1040D00000210A4601A8019100F0A6F8019B3C2BA3
:1040E0004FF0000112D1FF200A4600F048FB4FF0CC
:1040F000FF3000F02BFB41F28831074800F038F820
:10410000054800F051F803B05DF804FBFF220846B3
:1041100000F035FBEFE700BF40E6032008B50620BE
:1041200000F0D3FE20B9BDE80840024800F03CB8DA
:1041300008BD00BF40E6032010B5094C00232360F2
:10414000A380A3710320A3F58033A36000F06CF972
:104150002046044A0449BDE8104000F009BF00BFF2
:1041600034E6032030E60320AF400D0000000000DD
:104170000B4B10B501241C60084601F045F806A35E
:10418000D3E9002301F0BAF801F0CAFA054B186030
:10419000A3F204531C6010BDFCA9F1D24D62404053
:1041A0000805014004050140014B024A1A607047AE
:1041B000000601403546526E08B5024B1B689B68ED
:1041C000019308BD6802030008B5024B1B68DB6859
:1041D000019308BD6802030008B5024B1B689B6889
:1041E000019308BD2C02030008B5024B1B68DB6875
:1041F000019308BD2C02030008B5024B1B685B69E4
:10420000019308BD2C02030008B5024B1B685B68D4
:10421000019308BD1802030008B5024B1B685B69D7
:10422000019308BD1802030008B5024B1B68DB6E42
:10423000019308BD3402030008B5024B1B685B6C98
:10424000019308BD4802030008B5024B1B689B6C34
:10425000019308BD4802030008B5024B1B685B6967
:10426000019308BD6402030008B5024B1B681B687C
:10427000019308BD3C02030008B5024B1B68DB68D4
:10428000019308BD3C02030008B5024B1B681B6983
:10429000019308BD3C02030008B5024B1B685B6933
:1042A000019308BD3C02030008B5024B1B689B69E3
:1042B000019308BD3C02030008B5024B1B68DB6993
:1042C000019308BD3C02030008B5024B1B681B6A42
:1042D000019308BD3C02030008B5024B1B689B6AB2
:1042E000019308BD3C02030008B5024B1B681B6A22
:1042F000019308BD2802030008B5024B1B685B6AE6
:10430000019308BD2802030008B5024B1B689B6A95
:10431000019308BD2802030008B5024B1B68DB6A45
:10432000019308BD2802030008B5024B1B681B6BF4
:10433000019308BD2802030008B5024B1B685B6BA4
:10434000019308BD2802030008B5024B1B681B6CD3
:10435000019308BD2802030008B5024B1B68DB6906
:10436000019308BD3002030008B5024B1B681B6AAD
:10437000019308BD3002030008B5024B1B681B689F
:10438000019308BD4C02030008B5024B1B681B6972
:10439000019308BD4C02030008B5024B1B685B6922
:1043A000019308BD4C02030008B5024B1B689B69D2
:1043B000019308BD4C02030008B5024B1B68DB6982
:1043C000019308BD4C02030008B5024B1B681B6A31
:1043D000019308BD4C02030008B5024B1B685B68E3
:1043E000019308BD6002030008B5024B1B689B687F
:1043F000019308BD6002030008B5024B1B68DB682F
:10440000019308BD6002030008B5024B1B689B695D
:10441000019308BD6002030008B5024B1B68DB690D
:10442000019308BD6002030008B5024B1B685B687E
:10443000019308BD2002030008B5024B1B685B69AD
:10444000019308BD2002030008B5034B1B68D3F895
:104450008830019308BD00002002030008B5034B1B
:104460001B68D3F89430019308BD000020020300BC
:1044700008B5024B1B685B68019308BD400203004E
:1044800008B5024B1B689B68019308BD40020300FE
:1044900008B5024B1B68DB68019308BD40020300AE
:1044A00008B5024B1B681B69019308BD400203005D
:1044B00008B5024B1B685B69019308BD400203000D
:1044C00008B5024B1B689B69019308BD40020300BD
:1044D00008B5024B1B68DB69019308BD400203006D
:1044E00008B5024B1B681B6A019308BD400203001C
:1044F00008B5024B1B681B6B019308BD400203000B
:1045000008B5024B1B685B6B019308BD40020300BA
:1045100008B5024B1B681B6C019308BD40020300E9
:1045200008B5024B1B685B6C019308BD4002030099
:1045300008B5024B1B68DB6B019308BD4402030006
:1045400008B5024B1B681B68019308BD1C020300E1
:1045500008B5024B1B685B68019308BD1C02030091
:1045600008B5024B1B685B6C019308BD1C0203007D
:10457000002240681146FFF7B3BF00224068114691
:10458000FFF7BEBF40680022FFF7B2BF40680022BD
:1045900081F00101FFF79CBF002340681A461946CD
:1045A000FFF78EBF002340681A461946FFF780BF09
:1045B000002240681146FFF773BF00224068114691
:1045C000FFF75EBF406800220221FFF761BF0023B2
:1045D00040681A46FFF74CBF024B03225A60024A5A
:1045E0001A60704750E603201C580D0010B50446B1
:1045F00008462170FFF7B0FE00236360204610BD1F
:1046000010B5094B094C022200201A60084B2060AB
:10461000A080A071A360FFF707FF2046054A064966
:10462000BDE8104000F0A4BC64E6032058E6032077
:104630000000FFFF30E60320AF400D0010B5044638
:10464000006808B1FFF700FE204610BD10B5836872
:10465000044613B1032201469847204610BD0000CE
:1046600010B5064C002320462360FFF7E5FD2046E9
:10467000034A0449BDE8104000F07ABC68E6032014
:1046800030E603203D460D00F8B506460D468F186E
:104690000024BD420CD0336815F8011B9B683046DE
:1046A0009847031E01DB1C44F3E7002C08BF1C469F
:1046B0002046F8BD13B50446084659B1019101F0F2
:1046C00097F823680199DB680246204602B0BDE8EE
:1046D0001040184702B010BD03689B68184730B5FA
:1046E0008BB000238DF82430012A98BF0A2209AC30
:1046F0000D46B1FBF2F101FB125303F0FF03092B4E
:1047000094BF30333733DBB2AA4204F8013DEFD90E
:104710002146FFF7CFFF0BB030BD002340681A469B
:104720001946FFF7C5BE0000014B024A1A607047E8
:104730006CE6032050580D00024B1A68024B1A60B9
:10474000704700BFC8E5032070E603200021FFF793
:1047500073BE10B50446FFF779FF204610BD10B5B3
:104760000446FFF751FE844208D01CB1BDE810405A
:10477000FFF73ABEBDE81040FFF73EBE10BD70B572
:1047800005460E461446FFF73FFE50B144EA0620A8
:1047900040EA0540FFF720FEBDE87040E720FFF744
:1047A0003BBE70BD0348044A04490023836000F007
:1047B000DFBB00BF74E6032030E6032053470D0043
:1047C000014B1860704700BFCCE5032008B50B4BC8
:1047D00043B100F057F903681B699847002801DDD1
:1047E000AFF30080064B43B100F0CAF903681B69C0
:1047F0009847002801DDAFF3008008BD00000000ED
:104800000000000008B5FFF7E1FFFFF705FD014BD1
:10481000186008BDD4E703200248034A0349121A6E
:1048200000F0ACBF00F4032004F40320B0590D00E5
:1048300007B5002300931A466FF07701FFF70EFECD
:1048400003B05DF804FB000007B543880A2B08D0CD
:10485000502B0BD1094B1B684BB103B05DF804EB37
:104860001847FFF7E5FF03B05DF804FB0023009352
:104870001A466FF07701FFF7F1FDF4E788E60320B1
:1048800038B5124C1248134D0021FFF769FE23681A
:10489000AB42114B0CBF012200221A7002D0FFF76D
:1048A000BBFF2560FFF7B0FC044600F07DFF0B4B1B
:1048B00013B12046AFF3008000210848FFF738FE0F
:1048C000BDE8384006480021FFF7BEBD00F40320D4
:1048D000C1470D001E1C279A84E60320000000003B
:1048E00049480D00704710B51821044600F045FBFB
:1048F000204610BDF0B5037D062B8DB00E4600F1AD
:1049000004074FF0000412D000F1080515F8011D4E
:104910000A223046FFF7E3FEAF42044419D0002CD0
:10492000F4D02E213046FFF7D7FE0444EEE72F23C4
:104930006A4639460A208DF80040FFF78DFC68462C
:1049400000F056FF33680246DB68694630469847F8
:10495000044620460DB0F0BD10B5054B04461122AB
:1049600040F8043B002100F017FF204610BD00BFB7
:1049700078580D000346074A10B543F8042B01F19F
:10498000100251F8044B43F8044B9142F9D10A78D4
:104990001A7010BD78580D0010B59DF8084044EA13
:1049A000032343EA024242EA0161042341600375A2
:1049B00010BD000013B5054B0360CB7800938B78D6
:1049C0004A780978FFF7E8FF02B010BD78580D006B
:1049D00041747047704708B50021007CFFF7E4FC84
:1049E00040EAE07008BD08B50121007CFFF7DCFC5F
:1049F00040EAE07008BD08B5007CFFF7CDFC20EA76
:104A0000E07008BD08B5007CFFF7BEFC20EAE0704E
:104A100008BD13B50446007C0191FFF7BDFC0028DA
:104A2000019901DC607C20B1207CFFF7C5FC20EA05
:104A3000E07002B010BD007CFFF7C6BC10B51421B9
:104A4000044600F09AFA204610BD000010B54FF45D
:104A50007A73044608460021C4E90113044B23601D
:104A60000123207463741146FFF786FC204610BDB5
:104A70008C580D0010B514220446002100F08CFE65
:104A8000204610BD10B5104C88B003A8FFF7F2FF08
:104A90002178BFF35B8F11F0010111D12046019104
:104AA000FFF7FDFA019958B103AA0848FFF7CEFFB6
:104AB0002046FFF7F9FA064A0649044800F058FA7A
:104AC000024808B010BD00BF8CE6032090E603202A
:104AD00030E60320D5490D0070474174704708B592
:104AE000007CFFF7F9FB20EAE07008BD08B5007C08
:104AF000FFF7CAFB20EAE07008BD08B5007CFFF7AD
:104B0000D3FB40EAE07008BD08B5007CFFF7C4FBAA
:104B100040EAE07008BD007CFFF7CEBB37B5457CAE
:104B200004462DB1207C03B0BDE83040FFF7A4BBA4
:104B3000007C0191FFF7D0FB00280199F2DC2846A8
:104B400003B030BD10B51421044600F016FA20461B
:104B500010BD000010B54FF0000C04460846114689
:104B60004FF47A72C4E901C2044A2260012220741F
:104B700062741A46FFF778FB204610BDBC580D0042
:104B800013B50E4C2178BFF35B8F11F0010112D1E8
:104B900020460191FFF783FA019960B1084A094B59
:104BA0000948FFF7D7FF2046FFF77EFA074A084972
:104BB000054800F0DDF9044802B010BDA4E603206A
:104BC000A8E603202CE70320B0E7032030E603200B
:104BD000D94A0D007047F8B5064615460C468F18A1
:104BE000BC4206D0336814F8011B9B6830469847D6
:104BF000F6E72846F8BD007C0022FFF775BB007C75
:104C00000021FFF779BB007C0021FFF77DBB007C12
:104C10000021FFF781BB007C0021FFF785BB10B5A9
:104C20001421044600F0A9F9204610BD10B54FF438
:104C30007A73044608460021C4E90113034B23603C
:104C400020741146FFF780FB204610BDEC580D0084
:104C5000002240681146FFF723BC0022406811463D
:104C6000FFF73EBC002240681146FFF749BC406890
:104C70000022FFF73DBC4068002281F00101FFF7F0
:104C800027BC002340681A461946FFF719BC0022CA
:104C900040681146FFF7F4BB406800220221FFF78D
:104CA000F7BB002340681A46FFF7E2BB024B042221
:104CB0005A60024A1A607047C4E7032014590D0075
:104CC000002340681A46FFF7D3BB40680022022148
:104CD000FFF7DEBB002240681146FFF7D1BB002280
:104CE00040681146FFF7DCBB002340681A461946AE
:104CF000FFF7DEBB002340681A461946FFF7E0BB0A
:104D000040680021FFF704BC40680021FFF708BCA1
:104D10004068002281F00101FFF7DABB4068002201
:104D2000FFF7E6BB002240681146FFF7E9BB00220F
:104D300040681146FFF7D4BB2DE9F043002495B03D
:104D400016460D460746FFF707FE214618220EA815
:104D5000009400F021FD4023CDE90C3421466B4640
:104D60000CAA3046FFF730FA044600284CD1024620
:104D700001216868FFF794FB02218046224668689B
:104D8000FFF78EFB009E81462146002E3CD0002975
:104D90003AD17368022B03D00A2B11D0F669F4E7DD
:104DA000B8F1000F0AD0716906A8043107ADFFF70A
:104DB00001FE0FCD3C1D0FC42B6823704146EDE76B
:104DC000B9F1000F01D14946E8E77469102201A842
:104DD00000F0E2FC06238DF8143001AD04F1080365
:104DE0001834186859682A4603C20833A342154686
:104DF000F7D101A906A807ADFFF7BCFD0FCD3C1DFB
:104E00000FC42B682370DEE70098FFF7D5F938460A
:104E100015B0BDE8F0830000024B034A1A6000227F
:104E20005A607047CCE7032050590D00232813B572
:104E300002D9002002B010BDA0F10B03022B1AD83A
:104E4000174C2178BFF35B8F11F001010BD1204685
:104E50000191FFF724F9019928B11248FFF7C6FB29
:104E60002046FFF721F90F4B1878FFF77DFA00284D
:104E7000DFD10120DEE7012809D800F051F8002138
:104E8000007CFFF759FA80F00100C0B2D2E7093880
:104E90000128EED8FFF774FE007CFFF715FAF2E761
:104EA00044E6032048E60320232838B504460D468F
:104EB0000AD8FF2908D0FFF7B9FF28B129462046B4
:104EC000BDE83840FFF788B938BD10B50446FFF794
:104ED0008BF9031FDBB2012B08D92046FFF7A6FF91
:104EE00020B12046BDE81040FFF786B9002010BD74
:104EF00038B50023202543801423044603808560B1
:104F000005610649284600F03AF8044960602846E1
:104F100000F035F8E060204638BD00BF84590D0030
:104F200030B50F4D2978BFF35B8F11F0010487B0C6
:104F300013D12846FFF7B3F878B101A8FFF7D8FFDF
:104F400001AA21460748FFF771FE2846FFF7ACF893
:104F5000054A0649034800F00BF8024807B030BD87
:104F6000D8E70320DCE7032030E60320D54B0D0013
:104F70000B460146184600F0F3BBFFF78EB8FFF76B
:104F80008AB8000081F0004102E000BF83F00043D6
:104F900030B54FEA41044FEA430594EA050F08BFD4
:104FA00090EA020F1FBF54EA000C55EA020C7FEA98
:104FB000645C7FEA655C00F0E2804FEA5454D4EB15
:104FC0005555B8BF6D420CDD2C4480EA020281EADF
:104FD000030382EA000083EA010180EA020281EA17
:104FE0000303362D88BF30BD11F0004F4FEA013169
:104FF0004FF4801C4CEA113102D0404261EB410178
:1050000013F0004F4FEA03334CEA133302D05242FD
:1050100063EB430394EA050F00F0A780A4F10104B9
:10502000D5F1200E0DDB02FA0EFC22FA05F28018F3
:1050300041F1000103FA0EF2801843FA05F35941D9
:105040000EE0A5F120050EF1200E012A03FA0EFC58
:1050500028BF4CF0020C43FA05F3C01851EBE37182
:1050600001F0004507D54FF0000EDCF1000C7EEB9F
:1050700000006EEB0101B1F5801F1BD3B1F5001FDD
:105080000CD349085FEA30004FEA3C0C04F10104FC
:105090004FEA445212F5800F80F09A80BCF1004F25
:1050A00008BF5FEA500C50F1000041EB045141EAA7
:1050B000050130BD5FEA4C0C404141EB0101013C70
:1050C00028BFB1F5801FE9D291F0000F04BF01465F
:1050D0000020B1FA81F308BF2033A3F10B03B3F131
:1050E00020020CDA0C3208DD02F1140CC2F10C02C1
:1050F00001FA0CF021FA02F10CE002F11402D8BF1F
:10510000C2F1200C01FA02F120FA0CFCDCBF41EAEA
:105110000C019040E41AA2BF01EB0451294330BDB9
:105120006FEA04041F3C1CDA0C340EDC04F1140496
:10513000C4F1200220FA04F001FA02F340EA03006D
:1051400021FA04F345EA030130BDC4F10C04C4F1B3
:10515000200220FA02F001FA04F340EA0300294693
:1051600030BD21FA04F0294630BD94F0000F83F4DD
:10517000801306BF81F480110134013D4EE77FEAC0
:10518000645C18BF7FEA655C29D094EA050F08BF0C
:1051900090EA020F05D054EA000C04BF19461046ED
:1051A00030BD91EA030F1EBF0021002030BD5FEA31
:1051B000545C05D14000494128BF41F0004130BD59
:1051C00014F580043CBF01F5801130BD01F00045AD
:1051D00045F0FE4141F470014FF0000030BD7FEA20
:1051E000645C1ABF194610467FEA655C1CBF0B461B
:1051F000024650EA013406BF52EA033591EA030F32
:1052000041F4002130BD00BF90F0000F04BF002129
:10521000704730B54FF4806404F132044FF000055C
:105220004FF0000150E700BF90F0000F04BF0021D5
:10523000704730B54FF4806404F1320410F000453B
:1052400048BF40424FF000013EE700BF42004FEA36
:10525000E2014FEA31014FEA02701FBF12F07F43B3
:1052600093F07F4F81F06051704732F07F4208BF6A
:10527000704793F07F4F04BF41F40021704730B571
:105280004FF4607401F0004521F000411CE700BFBD
:1052900050EA010208BF704730B54FF000050AE040
:1052A00050EA010208BF704730B511F0004502D541
:1052B000404261EB41014FF4806404F132045FEA43
:1052C000915C3FF4D8AE4FF003025FEADC0C18BFEC
:1052D00003325FEADC0C18BF033202EBDC02C2F1DE
:1052E000200300FA03FC20FA02F001FA03FE40EA70
:1052F0000E0021FA02F11444BDE600BF70B54FF074
:10530000FF0C4CF4E06C1CEA11541DBF1CEA135551
:1053100094EA0C0F95EA0C0F00F0DEF82C4481EAB9
:10532000030621EA4C5123EA4C5350EA013518BFD9
:1053300052EA033541F4801143F4801338D0A0FBC6
:1053400002CE4FF00005E1FB02E506F00042E0FB73
:1053500003E54FF00006E1FB03569CF0000F18BF79
:105360004EF0010EA4F1FF04B6F5007F64F5407421
:1053700004D25FEA4E0E6D4146EB060642EAC621B4
:1053800041EA55514FEAC52040EA5E504FEACE2E21
:10539000B4F1FD0C88BFBCF5E06F1ED8BEF1004F24
:1053A00008BF5FEA500E50F1000041EB045170BDA0
:1053B00006F0004646EA010140EA020081EA0301E4
:1053C000B4EB5C04C2BFD4EB0C0541EA045170BDE0
:1053D00041F480114FF0000E013C00F3AB8014F15A
:1053E000360FDEBF002001F0004170BDC4F10004A3
:1053F000203C35DA0C341BDC04F11404C4F1200524
:1054000000FA05F320FA04F001FA05F240EA02007E
:1054100001F0004221F0004110EBD37021FA04F6B4
:1054200042EB06015EEA430E08BF20EAD37070BD6E
:10543000C4F10C04C4F1200500FA04F320FA05F0CD
:1054400001FA04F240EA020001F0004110EBD370CF
:1054500041F100015EEA430E08BF20EAD37070BD3F
:10546000C4F1200500FA05F24EEA020E20FA04F318
:1054700001FA05F243EA020321FA04F001F00041C7
:1054800021FA04F220EA020000EBD3705EEA430E38
:1054900008BF20EAD37070BD94F0000F0FD101F067
:1054A0000046400041EB010111F4801F08BF013CA0
:1054B000F7D041EA060195F0000F18BF704703F0DE
:1054C0000046520043EB030313F4801F08BF013D65
:1054D000F7D043EA0603704794EA0C0F0CEA135521
:1054E00018BF95EA0C0F0CD050EA410618BF52EADB
:1054F0004306D1D181EA030101F000414FF00000E1
:1055000070BD50EA410606BF1046194652EA4306EE
:1055100019D094EA0C0F02D150EA013613D195EA62
:105520000C0F05D152EA03361CBF104619460AD1AA
:1055300081EA030101F0004141F0FE4141F47001B4
:105540004FF0000070BD41F0FE4141F4780170BDA4
:1055500070B54FF0FF0C4CF4E06C1CEA11541DBF09
:105560001CEA135594EA0C0F95EA0C0F00F0A7F80B
:10557000A4EB050481EA030E52EA03354FEA013138
:1055800000F088804FEA03334FF0805545EA13134B
:1055900043EA12634FEA022245EA111545EA106513
:1055A0004FEA00260EF000419D4208BF964244F1AA
:1055B000FD0404F5407402D25B084FEA3202B61AC9
:1055C00065EB03055B084FEA32024FF480104FF49D
:1055D000002CB6EB020E75EB030E22BFB61A754611
:1055E00040EA0C005B084FEA3202B6EB020E75EBA4
:1055F000030E22BFB61A754640EA5C005B084FEA0C
:105600003202B6EB020E75EB030E22BFB61A7546D8
:1056100040EA9C005B084FEA3202B6EB020E75EBE3
:10562000030E22BFB61A754640EADC0055EA060EA4
:1056300018D04FEA051545EA16754FEA06164FEAE7
:10564000C30343EA52734FEAC2025FEA1C1CC0D193
:1056500011F4801F0BD141EA00014FF000004FF020
:10566000004CB6E711F4801F04BF01430020B4F1E1
:10567000FD0C88BFBCF5E06F3FF6AFAEB5EB030C99
:1056800004BFB6EB020C5FEA500C50F1000041EB96
:10569000045170BD0EF0004E4EEA113114EB5C0463
:1056A000C2BFD4EB0C0541EA045170BD41F4801136
:1056B0004FF0000E013C90E645EA060E8DE60CEA3E
:1056C000135594EA0C0F08BF95EA0C0F3FF43BAF5B
:1056D00094EA0C0F0AD150EA01347FF434AF95EA12
:1056E0000C0F7FF425AF104619462CE795EA0C0FF6
:1056F00006D152EA03353FF4FDAE1046194622E7C3
:1057000050EA410618BF52EA43067FF4C5AE50EA9C
:1057100041047FF40DAF52EA43057FF4EBAE12E78C
:105720004A0011D212F5001211D20DD56FF4787320
:10573000B3EB62520ED44FEAC12343F0004343EA75
:10574000505323FA02F070474FF00000704750EAC0
:10575000013002D14FF0FF3070474FF0000070472A
:1057600010B5054C13462CB10A4601460220AFF392
:10577000008010BD2046FCE7000000000A44914272
:1057800000F1FF3300D1704710B511F8014B03F859
:10579000014F9142F9D110BD02440346934200D11A
:1057A000704703F8011BF9E738B50D4B1D68AB6B6B
:1057B00004467BB91820FEF7C3FE0A4A0A4BA863C9
:1057C000C0E90023094B83600B238381012200235E
:1057D000C0E90423AB6B00221C615A6138BD00BFD5
:1057E000CCE503200E33CDAB34126DE6ECDE0500C4
:1057F000034613F8012B002AFBD1181A0138704711
:1058000021400D005D400D0085400D0089400D00D8
:10581000000000000000000000000000CF450D0067
:10582000C5450D00BB450D00B1450D00A5450D005A
:1058300099450D00014D0D00094D0D008D450D00E0
:1058400085450D007B450D0071450D00394D0D005E
:105850006170700025592D256D2D25645425483A19
:10586000254D3A2553257A0061736374696D65008F
:105870000000000000000000F5480D00E5480D00A4
:10588000E7480D000000000000000000D5490D00B1
:105890003D4A0D00134A0D0089460D00054A0D00D2
:1058A000D7490D00E7490D00374A0D00F7490D00B3
:1058B000D1490D000000000000000000D94A0D0091
:1058C000454B0D001D4B0D0089460D00ED4A0D00A6
:1058D000094B0D00FB4A0D00174B0D00DB4A0D0074
:1058E000DF4A0D000000000000000000D54B0D0055
:1058F0001F4C0D00F74B0D00D74B0D00FF4B0D005B
:10590000074C0D000F4C0D00174C0D00000000005F
:1059100000000000A34C0D00994C0D008F4C0D00B1
:10592000514C0D001B470D00834C0D00014D0D0027
:10593000094D0D00774C0D006F4C0D00654C0D00AE
:105940005B4C0D00394D0D00000000000000000010
:10595000C14C0D00CB4C0D00D54C0D00DF4C0D00A3
:10596000E94C0D00F54C0D00014D0D00094D0D00E9
:10597000114D0D001D4D0D00254D0D002F4D0D003D
:10598000394D0D000000000039410D00D9450D00D2
:1059900001460D0061460D0029470D0039470D00F5
:1059A000A5470D00AD4C0D00194E0D000000000084
:0459B00000000000F3
:1059B40068580D00D0E5032000000000000000003E
:1059C40000000000000000000000000000000000D3
:1059D40000000000000000000000000000000000C3
:1059E40000000000000000000000000000000000B3
:1059F40000000000000000000000000000000000A3
:105A04000000000000000000000000000000000092
:085A140000000000000000008A
:105A1C00FFFFFFFF00000102030405060708090A47
:105A2C000B0C0D0E0F101112131415161718191A42
:085A3C001B1C1D1E1F20280089
:045A4400785634124A
:04000003D0004020C9
:00000001FF
